:020000020000FC
:1000000000E0202E00E0302E00E0402E08E0502ED0
:1000100010E005E02F9320E02A95AAF02A9572F0CF
:100020002A953AF02A9502F0B6D0A4D0D6D0AAD01C
:100030000EC0B7D097D0D1D0A5D009C0B8D08AD043
:10004000CCD0A0D004C0B9D07DD0C7D09BD02F9148
:100050002F9321E02A95AAF02A9572F02A953AF07A
:100060002A9502F098D086D0B8D08CD00EC099D006
:1000700079D0B3D087D009C09AD06CD0AED082D01E
:1000800004C09BD05FD0A9D07DD02F912F9322E0C8
:100090002A95AAF02A9572F02A953AF02A9502F04C
:1000A0007AD068D09AD06ED00EC07BD05BD095D07D
:1000B00069D009C07CD04ED090D064D004C07DD02F
:1000C00041D08BD05FD02F912F9323E02A95AAF0B7
:1000D0002A9572F02A953AF02A9502F05CD04AD01F
:1000E0007CD050D00EC05DD03DD077D04BD009C071
:1000F0005ED030D072D046D004C05FD023D06DD057
:1001000041D02F914AE02394241669F42224339499
:10011000341649F433244394441629F44424539464
:10012000541609F4552476CFEF93FF93EAE3F1E0F8
:10013000E00F0491EF91FF9108953F065B4F666DCC
:100140007D077F6F0F930027020DEEDF01BB02BB1F
:100150000F9108950F930027030DE6DF01BB02BB4B
:100160000F9108950F930027040DDEDF01BB02BB42
:100170000F9108950F930027050DD6DF01BB02BB39
:100180000F9108950F931F9300E01EE117BB08BB6A
:100190001F910F9108950F9302E007BB08BB0F91C9
:1001A00008950F9304E007BB08BB0F9108950F93C8
:1001B00008E007BB08BB0F9108950F9300E107BB50
:1001C00008BB0F9108958F939F9396E080E4019769
:1001D00009F0FDCF9F918F9108958F939F93C80150
:1001E00002C0019711F0EFDFFCCF9F918F9108952E
:00000001FF
