:020000020000FC
:1000000010E00AEF32D031D00FD051D025D033D00C
:100010000BD04DD021D035D007D049D01DD037D00E
:1000200003D045D019D0EFCF0F931F932F930FE339
:1000300010E02FE721BB02BB2F911F910F91089574
:100040000F931F932F9306E010E02FE721BB02BB15
:100050002F911F910F9108950F931F9300E01EE1C0
:1000600017BB08BB1F910F9108950F9302E007BBC8
:1000700008BB0F9108950F9304E007BB08BB0F91D5
:1000800008950F9308E007BB08BB0F9108950F93E5
:1000900000E107BB08BB0F9108958F939F9396E0F3
:1000A00080E4019709F0FDCF9F918F9108958F9380
:1000B0009F93C80102C0019711F0EFDFFCCF9F9121
:0400C0008F9108957F
:00000001FF
