:020000020000FC
:100000000FE316E02BE53FE4202E312E422E532E37
:10001000002711272227332710E005E025D00FD035
:1000200045D019D027D00ED041D015D029D00DD031
:100030003DD011D02BD00CD039D00DD0EFCF21BA7C
:1000400022BA089531BA32BA089541BA42BA08952F
:1000500051BA52BA08950F931F9300E01EE117BBE7
:1000600008BB1F910F9108950F9302E007BB08BBD7
:100070000F9108950F9304E007BB08BB0F910895FB
:100080000F9308E007BB08BB0F9108950F9300E1A1
:1000900007BB08BB0F9108958F939F9396E080E470
:1000A000019709F0FDCF9F918F9108958F939F93B2
:1000B000C80102C0019711F0EFDFFCCF9F918F9133
:0200C0000895A1
:00000001FF
