:020000020000FC
:1000000000E0202E00E0302E00E0402E08E0502ED0
:1000100010E005E02F9320E02A95AAF02A9572F0CF
:100020002A953AF02A9502F0BCD098D0CAD09ED03A
:100030000EC0B1D08BD0C5D099D009C0A6D07ED08B
:10004000C0D094D004C09BD071D0BBD08FD02F91A2
:100050002F9321E02A95AAF02A9572F02A953AF07A
:100060002A9502F09ED07AD0ACD080D00EC093D02A
:100070006DD0A7D07BD009C088D060D0A2D076D078
:1000800004C07DD053D09DD071D02F912F9322E00A
:100090002A95AAF02A9572F02A953AF02A9502F04C
:1000A00080D05CD08ED062D00EC075D04FD089D0B9
:1000B0005DD009C06AD042D084D058D004C05FD08F
:1000C00035D07FD053D02F912F9323E02A95AAF0DB
:1000D0002A9572F02A953AF02A9502F062D03ED025
:1000E00070D044D00EC057D031D06BD03FD009C0B3
:1000F0004CD024D066D03AD004C041D017D061D0C3
:1001000035D02F914AE02394241609F4222482CF7B
:10011000EF93FF93E2E2F1E0E00F0491EF91FF91A2
:1001200008953F065B4F666D7D077F6F0F93002735
:10013000020DEEDF01BB02BB0F9108950F93002764
:10014000030DE6DF01BB02BB0F9108950F9300275B
:10015000040DDEDF01BB02BB0F9108950F93002752
:10016000050DD6DF01BB02BB0F9108950F931F93BE
:1001700000E01EE117BB08BB1F910F9108950F937C
:1001800002E007BB08BB0F9108950F9304E007BB83
:1001900008BB0F9108950F9308E007BB08BB0F91B0
:1001A00008950F9300E107BB08BB0F9108958F934B
:1001B0009F9396E080E4019709F0FDCF9F918F9186
:1001C00008958F939F93C80102C0019711F0EFDF4C
:0801D000FCCF9F918F9108956F
:00000001FF
