:020000020000FC
:0200000031C00D
:0200080014C022
:1000160000C0F8948F939F93CFB6CF9201960C01B0
:10002600CF90CFBE9F918F91789418950F931F9381
:100036002F933F93F894CFB6CF92800120E137E219
:1000460048D0202E312E422E532E00241124CF903C
:10005600CFBE3F912F911F910F91789418951F93C2
:1000660010E21BBF11E010BD10E01FBD1CE01EBD5D
:100076001DE31BBD19E01ABD10E419BF1F9178944A
:100086000F9302E007BB08BB022D51D001BB02BB98
:100096000F9156D00F9304E007BB08BB032D47D042
:1000A60001BB02BB0F914CD00F9308E007BB08BB06
:1000B600042D3DD001BB02BB0F9142D00F9300E14E
:1000C60007BB08BB052D33D001BB02BB0F9138D04F
:1000D600D7CF6F937F938F939F9328EE33E013D000
:1000E600622F24E630E00FD0722F2AE030E00BD0EA
:1000F600822F902F062F172F282F392F9F918F9100
:100106007F916F9108958F939F9380E090E00217FF
:10011600130720F0021B130B0196F9CF9C019F9148
:100126008F9108953F065B4F666D7D07FF6FEF93D6
:10013600FF93EAE2F1E0E00F0491FF91EF91089559
:100146008F939F9390E085E0019712F004D0FCCF47
:100156009F918F9108958F939F9397E080ED0197DC
:08016600F1F79F918F910895BC
:00000001FF
