:020000020000FC
:0200000034C00A
:0200080016C020
:1000160000C0F894CF920F93CFB601E0A02EBB2478
:100026000A0C1B1CCFBE0F91CF907894189518958B
:100036000F931F932F933F93F894CF92CFB68001DF
:1000460020E137E261D046D0202E312E422E532EAB
:1000560000241124CFBECF903F912F911F910F9175
:10006600789418951F9310E21BBF11E010BD1CE099
:100076001EBD1DE31BBD19E01ABD10E419BF1F917B
:1000860078940F9302E007BB08BB022D52D001BB48
:1000960002BB0F9157D00F9304E007BB08BB032D9B
:1000A60048D001BB02BB0F914DD00F9308E007BBB0
:1000B60008BB042D3ED001BB02BB0F9143D00F936A
:1000C60000E107BB08BB052D34D001BB02BB0F9175
:1000D60039D0D7CF6F937F938F939F9328EE33E0DA
:1000E60013D0622F24E630E00FD0722F2AE030E0E2
:1000F6000BD0822F902F062F172F282F392F9F9145
:100106008F917F916F9108958F939F9380E090E0F8
:100116000217130720F0021B130B0196F9CF392F94
:10012600282F9F918F9108953F065B4F666D7D073F
:10013600FF6FEF93FF93EEE2F1E0E00F0491FF9182
:10014600EF9108958F939F9390E085E0019712F0C9
:1001560004D0FCCF9F918F9108958F939F9397E042
:0C01660080ED0197F1F79F918F910895B3
:00000001FF
