:020000020000FC
:100000000FE316E02BE53FE4202E312E422E532E37
:10001000002711272227332710E005E03ED03DD0EE
:100020000FD05DD031D03FD014D059D02DD041D099
:1000300019D055D029D043D01ED051D025D0EFCFE4
:100040000F932F930FE32FE721BB02BB2F910F914B
:1000500008950F932F9306E02FE721BB02BB2F914A
:100060000F9108950F932F930BE52FE721BB02BB50
:100070002F910F9108950F932F930FE42FE721BB3A
:1000800002BB2F910F9108950F931F9300E01EE183
:1000900017BB08BB1F910F9108950F9302E007BB98
:1000A00008BB0F9108950F9304E007BB08BB0F91A5
:1000B00008950F9308E007BB08BB0F9108950F93B5
:1000C00000E107BB08BB0F9108958F939F9396E0C3
:1000D00080E4019709F0FDCF9F918F9108958F9350
:1000E0009F93C80102C0019711F0EFDFFCCF9F91F1
:0400F0008F9108954F
:00000001FF
