:020000020000FC
:1000000001E0A02EBB240F9302E007BB08BB022D2A
:100010002ED001BB02BB0F9138D00F9304E007BB79
:1000200008BB032D24D001BB02BB0F912ED00F9330
:1000300008E007BB08BB042D1AD001BB02BB0F911F
:1000400024D00F9300E107BB08BB052D10D001BBE6
:1000500002BB0F911AD0800120E137E23CD021D0C1
:100060000A0C1B1C202E312E422E532ECCCFEF9388
:10007000FF93E0E8F0E0E00F0491EF91FF91089525
:100080003F065B4F666D7D077F6F8F939F9390E078
:1000900081E002C0019711F02ED0FCCF9F918F918B
:1000A00008956F937F938F939F9328EE33E013D03F
:1000B000622F24E630E00FD0722F2AE030E00BD020
:1000C000822F902F062F172F282F392F9F918F9136
:1000D0007F916F9108958F939F9380E090E0021736
:1000E000130720F0021B130B0196F9CF392F282F8D
:1000F0009F918F9108958F939F9396E080E401974D
:0A01000009F0FDCF9F918F91089543
:00000001FF
