:020000020000FC
:020000002CC012
:0200080015C021
:1000160000C0F8940F93CF92CFB601E0A02EBB2478
:100026000A0C1B1CCF90CFBE0F91789418950F9396
:100036001F932F933F93CF92CFB6F894800137E268
:1000460020E13FD0CF90CFBE3F912F911F910F91CE
:10005600789418951F9310E21BBF11E010BD1DE3A5
:100066001BBD19E01ABD1CE01EBD10E419BF789433
:100076000F9302E007BB08BB022D51D001BB02BBA8
:100086000F9156D00F9304E007BB08BB032D47D052
:1000960001BB02BB0F914CD00F9308E007BB08BB16
:1000A600042D3DD001BB02BB0F9142D00F9300E15E
:1000B60007BB08BB052D33D001BB02BB0F9138D05F
:1000C600D7CF6F937F938F939F9328EE13D0622F92
:1000D60030E024E60FD0722F30E02AE00BD0822FDA
:1000E600902F062F172F282F392F9F918F917F91B1
:1000F6006F9108958F939F9380E090E00217130706
:1001060020F0021B130B0196F9CF392F282F9F9150
:100116008F9108953F065B4F666D7D07FF6FEF93E6
:10012600FF93F1E0EAE1E00F0491FF91EF9108956A
:100136008F939F9390E085E0019712F004D0FCCF57
:100146009F918F9108958F939F9397E080ED0197EC
:08015600F1F79F918F910895CC
:00000001FF
