:020000020000FC
:1000000008E0202E00E0302E00E0402E08E0502EC8
:1000100010E005E02F9320E02A95AAF02A9572F0CF
:100020002A953AF02A9502F0B7D093D0C5D099D04E
:100030000EC0ACD086D0C0D094D009C0A1D079D0A9
:10004000BBD08FD004C096D06CD0B6D08AD02F91C0
:100050002F9321E02A95AAF02A9572F02A953AF07A
:100060002A9502F099D075D0A7D07BD00EC08ED043
:1000700068D0A2D076D009C083D05BD09DD071D09B
:1000800004C078D04ED098D06CD02F912F9322E01E
:100090002A95AAF02A9572F02A953AF02A9502F04C
:1000A0007BD057D089D05DD00EC070D04AD084D0DC
:1000B00058D009C065D03DD07FD053D004C05AD0AD
:1000C00030D07AD04ED02F912F9323E02A95AAF0EA
:1000D0002A9572F02A953AF02A9502F05DD039D02F
:1000E0006BD03FD00EC052D02CD066D03AD009C0D1
:1000F00047D01FD061D035D004C03CD012D05CD0E6
:1001000030D02F9187CFEF93FF93E8E1F1E0E00F3C
:100110000491EF91FF9108953F065B4F666D7D0757
:100120007F6F0F930027020DEEDF01BB02BB0F9123
:1001300008950F930027030DE6DF01BB02BB0F916B
:1001400008950F930027040DDEDF01BB02BB0F9162
:1001500008950F930027050DD6DF01BB02BB0F9159
:1001600008950F931F9300E01EE117BB08BB1F917A
:100170000F9108950F9302E007BB08BB0F910895FC
:100180000F9304E007BB08BB0F9108950F9308E09D
:1001900007BB08BB0F9108950F9300E107BB08BB95
:1001A0000F9108958F939F9396E080E4019709F053
:1001B000FDCF9F918F9108958F939F93C80102C0A7
:0E01C000019711F0EFDFFCCF9F918F91089512
:00000001FF
