:020000020000FC
:1000000009E0202E002708E0302E002707E0402ED0
:10001000002706E0502E002710E005E047D01DD055
:1000200067D03BD049D021D063D037D04BD025D03A
:100030005FD033D04DD029D05BD02FD0EFCFEF930E
:10004000FF93E0E5F0E0E00F0491EF91FF91089558
:100050003F065B4F666D7D077F6F0F930027020D94
:10006000EEDF01BB02BB0F9108950F930027030D34
:10007000E6DF01BB02BB0F9108950F930027040D2B
:10008000DEDF01BB02BB0F9108950F930027050D22
:10009000D6DF01BB02BB0F9108950F931F9300E0C1
:1000A0001EE117BB08BB1F910F9108950F9302E04B
:1000B00007BB08BB0F9108950F9304E007BB08BB73
:1000C0000F9108950F9308E007BB08BB0F910895A7
:1000D0000F9300E107BB08BB0F9108958F939F9387
:1000E00096E080E4019709F0FDCF9F918F910895EC
:1000F0008F939F93C80102C0019711F0EFDFFCCFEF
:060100009F918F9108950C
:00000001FF
