:020000020000FC
:0200000030C00E
:0200080010C026
:1000160000C0F894CF92CFB60A0C1B1CCFBECF906F
:1000260078941895F894CF92CFB60F931F932F9389
:100036003F93800120E137E26BD0202E312E422EF5
:10004600532E3F912F911F910F911F9310E0002483
:1000560011241F91CFBECF907894189578941F9352
:1000660010E21BBF11E010BD13E01F911F9310E0BB
:100076001FBD1CE01EBD1DE31BBD19E01ABD10E42B
:1000860019BF1F9101E0A02EBB240F9302E007BB0E
:1000960008BB022D23D001BB02BB0F912DD00F93BD
:1000A60004E007BB08BB032D19D001BB02BB0F91AF
:1000B60023D00F9308E007BB08BB042D0FD001BB6C
:1000C60002BB0F9119D00F9300E107BB08BB052DAA
:1000D60005D001BB02BB0F910FD0D7CFEF93FF9393
:1000E600E4EFF0E0E00F0491EF91FF9108953F06F1
:1000F6005B4F666D7D077F6F8F939F9390E081E0E6
:1001060002C0019711F02ED0FCCF9F918F910895D8
:100116006F937F938F939F9328EE33E013D0622FD4
:1001260024E630E00FD0722F2AE030E00BD0822F89
:10013600902F062F172F282F392F9F918F917F9160
:100146006F9108958F939F9380E090E002171307B5
:1001560020F0021B130B0196F9CF392F282F9F9100
:100166008F9108958F939F9396E080E4019709F00D
:08017600FDCF9F918F910895C8
:00000001FF
