:020000020000FC
:020000002CC012
:0200080015C021
:1000160000C0F8940F93CF92CFB601E0A02EBB2478
:100026000A0C1B1CCF90CFBE0F91789418950F9396
:100036001F932F933F93CF92CFB6F894800137E268
:1000460020E13FD0CF90CFBE3F912F911F910F91CE
:10005600789418951F9310E21BBF11E010BD1DE3A5
:100066001BBD19E01ABD1CE01EBD10E419BF789433
:100076000F9302E007BB08BB022D52D001BB02BBA7
:100086000F9157D00F9304E007BB08BB032D48D050
:1000960001BB02BB0F914DD00F9308E007BB08BB15
:1000A600042D3ED001BB02BB0F9143D00F9300E15C
:1000B60007BB08BB052D34D001BB02BB0F9139D05D
:1000C600D7CF6F937F938F939F9333E028EE13D010
:1000D600622F30E024E60FD0722F30E02AE00BD0FA
:1000E600822F902F062F172F282F392F9F918F9110
:1000F6007F916F9108958F939F9388279927021771
:10010600130720F0021B130B0196F9CF392F282F66
:100116009F918F9108953F065B4F666D7D07FF6F38
:10012600EF93FF93F1E0ECE1E00F0491FF91EF9183
:1001360008958F939F9390E085E0019712F004D085
:10014600FCCF9F918F9108958F939F9387E090EDB9
:0A0156000197F1F79F918F91089532
:00000001FF
